:107000000C9434380C9451380C9451380C945138F9
:107010000C9451380C9451380C9451380C945138CC
:107020000C9451380C9451380C9451380C945138BC
:107030000C9451380C9451380C9451380C945138AC
:107040000C9451380C9451380C9451380C9451389C
:107050000C9451380C9451380C9451380C9451388C
:107060000C9451380C94513811241FBECFEFD8E046
:10707000DEBFCDBF11E0A0E0B1E0E4E1FFE702C078
:1070800005900D92AE30B107D9F721E0AEE0B1E046
:1070900001C01D92AB3BB207E1F70E9440390C944E
:1070A000883F0C940038559A569A08955D9A089531
:1070B0005D9808955E9A08955E9808955E9B0C947D
:1070C0005A380C945C385D9B0C9456380C945838A4
:1070D0003A9A239A259A2C9A089580EA3197319703
:1070E000319700008A95D1F7089502D0429801C0E7
:1070F000429A8FEF98E087FD2B9A87FF2B98880F95
:107100001C9983952D9A2D989A95A9F70895FB01BE
:1071100083E080935700E8958091570080FDFCCF75
:1071200081E180935700E89508950F921F92FB012B
:10713000DA0190E40D901D9081E080935700E8956E
:1071400032969A95B9F7FB0185E080935700E89550
:107150008091570080FDFCCF81E180935700E89536
:107160001F900F9008958823B1F0299A2FEF33ECE8
:1071700099E0215030409040E1F700C0000029988C
:107180002FEF33EC99E0215030409040E1F700C000
:1071900000008150E8CF0895F999FECF8EE290E08B
:1071A0000E94723F823151F062E18EE290E00E94D3
:1071B0007A3F60E08FE290E00E947A3F0895CF929C
:1071C000DF92EF92FF92CF93DF9300D0CDB7DEB77F
:1071D000C12CD12C760140E850E06FEF70E08BE3DA
:1071E00091E00E946B3FAE014F5F5F4F60E870E03F
:1071F0008BE391E00E940F3DABE3B1E0C6018B53FE
:107200009140FC01EA0FFB1FE4912D91E21318C09D
:1072100021E0AB3BB207A9F780E8C80ED11CE11C06
:10722000F11CC11420E7D206E104F104A1F60F908D
:107230000F90DF91CF91FF90EF90DF90CF90089566
:10724000C701B6010E9487384BE351E0C701B60180
:107250000E949538E1CF81E191E00E94A03A882315
:1072600011F085E007C080E091E00E94893B88230F
:1072700021F08AE00E94B33808950E94DF38089513
:10728000CF93DF9394B714BE8091600088618093A0
:1072900060001092600091FF27C0219A229A2A9ADA
:1072A000FFEF20E782E0F15020408040E1F700C08E
:1072B00000000E94CC38C0E0D0E00E942B39FE01D3
:1072C00085919491019619F02998FE0109958FE016
:1072D0000E94B338FFEF23E284EFF150204080405A
:1072E000E1F700C00000E9CFE0E0F0E0099580E0C0
:1072F00090E0DF91CF9108950F931F93E0910E01DD
:10730000F0910F019B01AC01225031094109510953
:1073100086819781A085B1850297A109B1092817B7
:1073200039074A075B0768F4A281B0E00E941A3F60
:107330000289138924893589600F711F821F931F69
:1073400003C060E070E0CB011F910F9108950F938F
:107350001F93CF93DF93DC01E0910E01F0910F01B9
:1073600011961C921E9214966D917D918D919C9117
:107370001797613071058105910569F106811781C3
:1073800020853185601771078207930720F5611505
:1073900071058105910539F42081233021F466853A
:1073A000778580899189ED01688779878A879B87AE
:1073B000611571058105910519F00E947C3904C0A1
:1073C00066857785808991896C877D878E879F8781
:1073D00080E090E002C081E090E0DF91CF911F91CA
:1073E0000F910895A4E0B0E0E8EFF9E30C94333F87
:1073F000623071058105910508F459C0E0910E01D4
:10740000F0910F0106811781208531856017710782
:107410008207930708F04BC0AB01BC01808182302A
:1074200019F08330F1F043C09A013327220F331F44
:10743000452F562F672F772782859385A485B5859D
:10744000480F591F6A1F7B1F02E010E0CE01019612
:107450000E94A93E892B59F569817A8180E090E0EC
:107460002AC09A012F773327220F331F220F331F91
:1074700097E076956795579547959A95D1F78285C8
:107480009385A485B585480F591F6A1F7B1F04E0AB
:1074900010E0CE0101960E94A93E892B41F489811A
:1074A0009A81AB81BC81BC01CD019F7004C061E0B9
:1074B00070E080E090E02496E4E00C944F3FA0E080
:1074C000B0E0E5E6FAE30C942F3FEC016A017B01A2
:1074D00002E010E02EEF31E00E94A93E892B31F549
:1074E0008881998185359A4A19F526E330E0B701FC
:1074F000A601CE010E94A93E892B39F48881998189
:107500008634914411F480E016C002E010E022E5D8
:1075100030E0B701A601CE010E94A93E892B51F4AB
:10752000888199818634914429F4EDCF83E003C0AA
:1075300082E001C081E0CDB7DEB7E8E00C944B3FBC
:10754000A4E2B0E0E6EAFAE30C94253F1C011092B5
:107550000F0110920E010E940A3E80FD9FC040E084
:1075600050E0BA01CE0101960E945F3A813009F5E0
:1075700000E110E02EEB31E040E050E0BA01CE0136
:1075800001960E94A93E892B19F081E090E0BDC0D0
:107590008D81811103C086E090E0B7C049845A8490
:1075A0006B847C84B301A201CE0101960E945F3AF4
:1075B00003C0412C512C3201833039F38111EBCFC0
:1075C00004E210E02DE030E0B301A201CE0101960B
:1075D0000E94A93E892BC9F62A853B8540E050E0F0
:1075E000211531054105510521F4288D398D4A8D2C
:1075F0005B8DAC81B0E00E941A3F4B015C014A8177
:107600005B8160E070E0440E551E661E771EF1013E
:10761000428653866486758629812283CD80DE80EA
:10762000D582C4828F819885A0E0B0E00097A10543
:10763000B10521F48C899D89AE89BF8934E0D69447
:10764000C7943A95E1F7E12CF12C841B950BA60B1E
:10765000B70B88199909AA09BB09BC01CD016C199E
:107660007D098E099F0930E040E050E00E94F83E1D
:10767000DA01C9010296A11DB11DF101868397832C
:10768000A087B187BA01A901465F5F40610971090E
:107690004F3F5F4E6105710590F003C082E090E0BE
:1076A00034C0873F9F4FA105B10508F474CF83E034
:1076B000F101808388A199A1AAA1BBA10EC0873F37
:1076C0009F4FA105B10598F782E0F1018083D501B4
:1076D000C401840D951DA61DB71D86879787A08BB5
:1076E000B18BC40CD51CE61CF71CC80CD91CEA1CB9
:1076F000FB1CF101C28AD38AE48AF58A1182309296
:107700000F0120920E0180E090E0A496E2E10C943B
:10771000413F6F927F929F92AF92BF92CF92DF9242
:10772000EF92FF920F931F93CF93DF93CDB7DEB706
:10773000EC970FB6F894DEBF0FBECDBFE0900E0100
:10774000F0900F01E114F10409F444C1F701118232
:107750009E012F5C3F4F3CA32BA39C016901F901C3
:1077600080812F5F3F4F8032C9F38F3209F4690166
:107770001DA21EA21FA218A6F6018081803238F039
:10778000A0E29A2E5E01FCE0AF0EB11C69C0CE01F2
:1077900081960E94A7391982009709F4E6C02BC18F
:1077A00080E090E028E031E0390FD601A90FB11D4B
:1077B0009C91913208F05FC0C30ED11C81E09132E0
:1077C00008F080E08387CE0181960E94A739009758
:1077D00009F011C129A13AA12F703327F5E0220F3A
:1077E000331FFA95E1F74DA55EA56FA578A900E2D4
:1077F00010E0CE0101960E94A93E892B09F0EFC04E
:107800008981882309F4EEC08C8583FD49C0DE019F
:107810001196EBA1FCA1AF01AA16BB06E1F5FA0196
:1078200093859111A2C084FFDDC0E0910E01F0911B
:107830000F018081833009F094C08D899E89A0E07A
:10784000B0E0DC01992788274B8D5C8D60E070E00B
:10785000842B952BA62BB72B8DA39EA3AFA3B8A7E4
:10786000EBA1FCA1DF01CF010B96A817B90709F422
:1078700097CF9D92FACF9F3209F49ECF9E3209F4A2
:10788000B4C0821708F098CFDF01A80FB11D9C93F8
:107890008F5F932F88CF2D919191291709F4BCCF39
:1078A00069A07AA0FFEF6F1A7F0A09F49BC08DA52B
:1078B0009EA5AFA5B8A90097A105B10509F492C08E
:1078C00093012F703327232B09F048C000910E013C
:1078D00010910F010196A11DB11D8DA79EA7AFA705
:1078E000B8AB69A57AA58BA59CA5F80161157105B2
:1078F0008105910539F4848195816816790608F02F
:1079000071C02CC0228130E0A9014150510993017E
:10791000E4E036952795EA95E1F724233523232BD8
:10792000E9F40E94F239623071058105910508F48D
:1079300056C0F801068117812085318560177107CF
:107940008207930708F04EC069A77AA78BA79CA768
:107950000E947C396DA77EA78FA798AB7AA269A2F7
:1079600039CF80E090E0DC016FCF89818823A1F1DD
:107970008C8584FD31C0E0910E01F0910F01808172
:10798000833041F48D899E89A0E0B0E0DC01992725
:10799000882703C080E090E0DC014B8D5C8D60E0C7
:1079A00070E0842B952BA62BB72BF701868F978F32
:1079B000A0A3B1A38D8D9E8DAF8DB8A1828F938F23
:1079C000A48FB58F168A178A108E118E81E081835D
:1079D00080E003C085E001C083E090E00CC081E05E
:1079E00090E009C083E090E006C0283009F0E4CEC2
:1079F00088E02BE04ECFEC960FB6F894DEBF0FBEBA
:107A0000CDBFDF91CF911F910F91FF90EF90DF904D
:107A1000CF90BF90AF909F907F906F900895A0E01F
:107A2000B0E0E5E1FDE30C94273F4C016B015A0106
:107A3000C0910E01D0910F01FA011182108220979E
:107A400009F4A1C0898180FFA1C08A8D9B8DAC8D76
:107A5000BD8D4E895F89688D798D841B950BA60B32
:107A6000B70BA60160E070E084179507A607B7077B
:107A700008F46C013401412C32E0532EC114D104BE
:107A800009F47EC08E899F89A88DB98DAC01BD0196
:107A9000517066277727452B462B472BD1F5FA8067
:107AA000FA94AC01BD0129E0769567955795479505
:107AB0002A95D1F7F422C1F4892B8A2B8B2B29F438
:107AC0006E8D7F8D88A199A106C06AA17BA18CA132
:107AD0009DA10E94F2396230710581059105A0F1E6
:107AE0006AA37BA38CA39DA36AA17BA18CA19DA16A
:107AF0000E947C39611571058105910529F1DC0130
:107B0000CB018F0D911DA11DB11D8EA39FA3A8A711
:107B1000B9A72E893F893170C201821B930B760170
:107B20008C159D0508F47C014EA15FA168A579A57F
:107B30008114910411F0C30102C080E090E087013C
:107B40000E94A93E892B21F0198281E090E020C09B
:107B50008E899F89A88DB98D8E0D9F1DA11DB11D88
:107B60008E8B9F8BA88FB98F6E0C7F1CCE18DF0871
:107B7000F50180819181E80EF91EF182E0827ECFCD
:107B800080E090E005C085E090E002C084E090E0F5
:107B9000CDB7DEB7E0E10C94433FFF920F931F9304
:107BA000CF93DF93C82FD42F152F062FF72E87FFE3
:107BB00009C040E050E0BA0187E70E94CD3D823025
:107BC00020F5CF770E9475388C2F0E947A388F2D40
:107BD0000E947A38802F0E947A38812F0E947A384A
:107BE0008D2F0E947A38C03421F0C83421F487E800
:107BF00003C085E901C081E00E947A38CAE00E9492
:107C0000793887FF02C0C150D1F7CDB7DEB7E5E0C4
:107C10000C944E3FA4E0B0E0E0E1FEE30C942F3F73
:107C20000E94683814E60E946D381150E1F71AE09E
:107C30000E9478381150E1F740E050E0BA0180E44A
:107C40000E94CD3D813009F05DC04AEA51E060E01C
:107C500070E088E40E94CD3D813061F58E010F5FB8
:107C60001F4F6E0185E0C80ED11C78010E94793843
:107C7000F70181937F01EC15FD05C1F78B81813000
:107C800009F040C08C818A3A09F03CC090E1E92EAD
:107C900097E2F92E40E050E060E070E489EE0E9447
:107CA000CD3D882339F10E946D38F1E0EF1AF108DB
:107CB00089F728C040E050E0BA0189EE0E94CD3D2E
:107CC000823018F011E001E402C012E009EE80E118
:107CD000E82E87E2F82E40E050E0BA01802F0E94A3
:107CE000CD3D882341F10E946D38F1E0EF1AF10893
:107CF00091F708C040E050E0BA018AE70E94CD3D0C
:107D0000882311F010E00CC00E947938F8018193AB
:107D10008F01CE16DF06C1F7898186FD0AC014E007
:107D2000109310010E94783881E0112371F080E0F7
:107D30000CC01CE0F5CF40E052E060E070E080E570
:107D40000E94CD3D8111DECFEBCF2496E8E00C946C
:107D50004B3FA0E0B0E0EFEAFEE30C942F3FD82EBB
:107D6000C92E79018091100183FD07C089E0440F7D
:107D7000551F661F771F8A95D1F781E50E94CD3D7B
:107D8000882319F0C1E0D0E02BC0C0E4DCE90E94F8
:107D900079388F3F19F42197D1F7F4CF8E3F91F7BF
:107DA000C2E0D2E0C01BD10BCE19DF09E114F1040F
:107DB00019F4ED2CFC2C06C00E94793881E0E81AF9
:107DC000F108F4CF0E947938F70181937F010150C7
:107DD0001109C1F70E9479382197E1F7C0E0D0E09E
:107DE0000E947838CE01CDB7DEB7E8E00C944B3F67
:107DF000A1E21A2EAA1BBB1BFD010DC0AA1FBB1FAF
:107E0000EE1FFF1FA217B307E407F50720F0A21B20
:107E1000B30BE40BF50B661F771F881F991F1A948D
:107E200069F760957095809590959B01AC01BD01B7
:107E3000CF0108950E945C3FA59F900DB49F900DC7
:107E4000A49F800D911D112408952F923F924F926F
:107E50005F926F927F928F929F92AF92BF92CF92DA
:107E6000DF92EF92FF920F931F93CF93DF93CDB7E3
:107E7000DEB7CA1BDB0B0FB6F894DEBF0FBECDBF5B
:107E800009942A88398848885F846E847D848C842C
:107E90009B84AA84B984C884DF80EE80FD800C8135
:107EA0001B81AA81B981CE0FD11D0FB6F894DEBF18
:107EB0000FBECDBFED010895A29FB001B39FC001D9
:107EC000A39F700D811D1124911DB29F700D811D06
:107ED0001124911D0895DC0101C06D934150504063
:107EE000E0F70895F999FECF92BD81BDF89A9927E0
:107EF00080B50895262FF999FECF1FBA92BD81BD96
:107F000020BD0FB6F894FA9AF99A0FBE019608951B
:047F1000F894FFCF13
:0E7F14004C434F4E4E4543542E42494E000002
:040000030000700089
:00000001FF
